
LightUp.elf:     file format elf32-avr

Sections:
Idx Name          Size      VMA       LMA       File off  Algn
  0 .data         00000000  00802800  00802800  00000144  2**0
                  CONTENTS, ALLOC, LOAD, DATA
  1 .text         000000f0  00000000  00000000  00000054  2**1
                  CONTENTS, ALLOC, LOAD, READONLY, CODE
  2 .comment      00000030  00000000  00000000  00000144  2**0
                  CONTENTS, READONLY
  3 .note.gnu.avr.deviceinfo 00000040  00000000  00000000  00000174  2**2
                  CONTENTS, READONLY
  4 .debug_aranges 00000020  00000000  00000000  000001b4  2**0
                  CONTENTS, READONLY, DEBUGGING
  5 .debug_info   000025d5  00000000  00000000  000001d4  2**0
                  CONTENTS, READONLY, DEBUGGING
  6 .debug_abbrev 0000237e  00000000  00000000  000027a9  2**0
                  CONTENTS, READONLY, DEBUGGING
  7 .debug_line   000002bf  00000000  00000000  00004b27  2**0
                  CONTENTS, READONLY, DEBUGGING
  8 .debug_frame  00000024  00000000  00000000  00004de8  2**2
                  CONTENTS, READONLY, DEBUGGING
  9 .debug_str    0000111a  00000000  00000000  00004e0c  2**0
                  CONTENTS, READONLY, DEBUGGING
 10 .debug_loc    00000048  00000000  00000000  00005f26  2**0
                  CONTENTS, READONLY, DEBUGGING
 11 .debug_ranges 00000010  00000000  00000000  00005f6e  2**0
                  CONTENTS, READONLY, DEBUGGING

Disassembly of section .text:

00000000 <__vectors>:
   0:	0c 94 50 00 	jmp	0xa0	; 0xa0 <__ctors_end>
   4:	0c 94 5a 00 	jmp	0xb4	; 0xb4 <__bad_interrupt>
   8:	0c 94 5a 00 	jmp	0xb4	; 0xb4 <__bad_interrupt>
   c:	0c 94 5a 00 	jmp	0xb4	; 0xb4 <__bad_interrupt>
  10:	0c 94 5a 00 	jmp	0xb4	; 0xb4 <__bad_interrupt>
  14:	0c 94 5a 00 	jmp	0xb4	; 0xb4 <__bad_interrupt>
  18:	0c 94 5a 00 	jmp	0xb4	; 0xb4 <__bad_interrupt>
  1c:	0c 94 5a 00 	jmp	0xb4	; 0xb4 <__bad_interrupt>
  20:	0c 94 5a 00 	jmp	0xb4	; 0xb4 <__bad_interrupt>
  24:	0c 94 5a 00 	jmp	0xb4	; 0xb4 <__bad_interrupt>
  28:	0c 94 5a 00 	jmp	0xb4	; 0xb4 <__bad_interrupt>
  2c:	0c 94 5a 00 	jmp	0xb4	; 0xb4 <__bad_interrupt>
  30:	0c 94 5a 00 	jmp	0xb4	; 0xb4 <__bad_interrupt>
  34:	0c 94 5a 00 	jmp	0xb4	; 0xb4 <__bad_interrupt>
  38:	0c 94 5a 00 	jmp	0xb4	; 0xb4 <__bad_interrupt>
  3c:	0c 94 5a 00 	jmp	0xb4	; 0xb4 <__bad_interrupt>
  40:	0c 94 5a 00 	jmp	0xb4	; 0xb4 <__bad_interrupt>
  44:	0c 94 5a 00 	jmp	0xb4	; 0xb4 <__bad_interrupt>
  48:	0c 94 5a 00 	jmp	0xb4	; 0xb4 <__bad_interrupt>
  4c:	0c 94 5a 00 	jmp	0xb4	; 0xb4 <__bad_interrupt>
  50:	0c 94 5a 00 	jmp	0xb4	; 0xb4 <__bad_interrupt>
  54:	0c 94 5a 00 	jmp	0xb4	; 0xb4 <__bad_interrupt>
  58:	0c 94 5a 00 	jmp	0xb4	; 0xb4 <__bad_interrupt>
  5c:	0c 94 5a 00 	jmp	0xb4	; 0xb4 <__bad_interrupt>
  60:	0c 94 5a 00 	jmp	0xb4	; 0xb4 <__bad_interrupt>
  64:	0c 94 5a 00 	jmp	0xb4	; 0xb4 <__bad_interrupt>
  68:	0c 94 5a 00 	jmp	0xb4	; 0xb4 <__bad_interrupt>
  6c:	0c 94 5a 00 	jmp	0xb4	; 0xb4 <__bad_interrupt>
  70:	0c 94 5a 00 	jmp	0xb4	; 0xb4 <__bad_interrupt>
  74:	0c 94 5a 00 	jmp	0xb4	; 0xb4 <__bad_interrupt>
  78:	0c 94 5a 00 	jmp	0xb4	; 0xb4 <__bad_interrupt>
  7c:	0c 94 5a 00 	jmp	0xb4	; 0xb4 <__bad_interrupt>
  80:	0c 94 5a 00 	jmp	0xb4	; 0xb4 <__bad_interrupt>
  84:	0c 94 5a 00 	jmp	0xb4	; 0xb4 <__bad_interrupt>
  88:	0c 94 5a 00 	jmp	0xb4	; 0xb4 <__bad_interrupt>
  8c:	0c 94 5a 00 	jmp	0xb4	; 0xb4 <__bad_interrupt>
  90:	0c 94 5a 00 	jmp	0xb4	; 0xb4 <__bad_interrupt>
  94:	0c 94 5a 00 	jmp	0xb4	; 0xb4 <__bad_interrupt>
  98:	0c 94 5a 00 	jmp	0xb4	; 0xb4 <__bad_interrupt>
  9c:	0c 94 5a 00 	jmp	0xb4	; 0xb4 <__bad_interrupt>

000000a0 <__ctors_end>:
  a0:	11 24       	eor	r1, r1
  a2:	1f be       	out	0x3f, r1	; 63
  a4:	cf ef       	ldi	r28, 0xFF	; 255
  a6:	cd bf       	out	0x3d, r28	; 61
  a8:	df e3       	ldi	r29, 0x3F	; 63
  aa:	de bf       	out	0x3e, r29	; 62
  ac:	0e 94 5c 00 	call	0xb8	; 0xb8 <main>
  b0:	0c 94 76 00 	jmp	0xec	; 0xec <_exit>

000000b4 <__bad_interrupt>:
  b4:	0c 94 00 00 	jmp	0	; 0x0 <__vectors>

000000b8 <main>:
int main(void)
{
	//unsigned short peDIRSET = peBase + 0x01;//PORTE的DIRSET寄存器地址

	//unsigned short peOUT = peBase + 0x05;//PORTE的OUT寄存器地址
	PORTE_DIRSET |= (1 << 2);   // PC03引脚设置为输出引脚
  b8:	e1 e8       	ldi	r30, 0x81	; 129
  ba:	f4 e0       	ldi	r31, 0x04	; 4
  bc:	80 81       	ld	r24, Z
  be:	84 60       	ori	r24, 0x04	; 4
  c0:	80 83       	st	Z, r24
	//CLKCTRL_MCLKCTRLB |= CLKCTRL_PDIV0_bm;   //CLK_MAIN divided by 4
	//CLKCTRL_MCLKCTRLB |= CLKCTRL_PEN_bm;     //Prescaler Enable
    while (1) 
    {
		//PORTB = PORTB | 0x20;
		PORTE_OUT |= (1 << 2); // height PC03引脚输出高电频
  c2:	e4 e8       	ldi	r30, 0x84	; 132
  c4:	f4 e0       	ldi	r31, 0x04	; 4
  c6:	80 81       	ld	r24, Z
  c8:	84 60       	ori	r24, 0x04	; 4
  ca:	80 83       	st	Z, r24
	#else
		//round up by default
		__ticks_dc = (uint32_t)(ceil(fabs(__tmp)));
	#endif

	__builtin_avr_delay_cycles(__ticks_dc);
  cc:	8f e3       	ldi	r24, 0x3F	; 63
  ce:	9c e9       	ldi	r25, 0x9C	; 156
  d0:	01 97       	sbiw	r24, 0x01	; 1
  d2:	f1 f7       	brne	.-4      	; 0xd0 <main+0x18>
  d4:	00 c0       	rjmp	.+0      	; 0xd6 <main+0x1e>
  d6:	00 00       	nop
		//PORTE_OUTSET |= (1 << 2); // height PC03引脚输出高电频
		//*((unsigned short *)peOUT) |= (1 << 2); // height PE02引脚输出高电频
		//mywhile(999999);
		//_delay_us(50);
		_delay_ms(10);
		PORTE_OUT &= ~(1 << 2); //low  PC03引脚输出低电频
  d8:	80 81       	ld	r24, Z
  da:	8b 7f       	andi	r24, 0xFB	; 251
  dc:	80 83       	st	Z, r24
  de:	8f e3       	ldi	r24, 0x3F	; 63
  e0:	9c e9       	ldi	r25, 0x9C	; 156
  e2:	01 97       	sbiw	r24, 0x01	; 1
  e4:	f1 f7       	brne	.-4      	; 0xe2 <main+0x2a>
  e6:	00 c0       	rjmp	.+0      	; 0xe8 <main+0x30>
  e8:	00 00       	nop
  ea:	eb cf       	rjmp	.-42     	; 0xc2 <main+0xa>

000000ec <_exit>:
  ec:	f8 94       	cli

000000ee <__stop_program>:
  ee:	ff cf       	rjmp	.-2      	; 0xee <__stop_program>
